S01500004D6F746F725F636F6E74726F6C2E737265639E
S113000071C0000079C0000077C0000075C0000016
S113001073C0000071C000006FC000006DC000001C
S11300206BC0000069C0000067C0000065C000002C
S113003063C0000061C000005FC000005DC000003C
S11300405BC0000059C0000057C0000055C000004C
S113005053C0000051C000004FC000004DC000005C
S11300604BC0000049C0000047C0000045C000006C
S113007043C0000041C000003FC000003DC000007C
S11300803BC0000039C0000037C0000035C000008C
S113009033C0000031C000002FC000002DC000009C
S11300A02BC0000029C0000027C0000025C00000AC
S11300B023C0000021C000001FC000001DC00000BC
S11300C01BC0000019C000003AC0000015C00000A9
S11300D013C0000011C000000FC000000DC00000DC
S11300E00BC0000011241FBECFEFD1E2DEBFCDBF95
S11300F000E00CBF60D0FAC083CFE1E2F1E01082EF
S113010010922501109224011092290110922801C5
S113011010922B0110922A0110922D0110922C01A1
S113012089EA80932001109222018BE08083089554
S1130130F894E3DF81E080937300789408951F922C
S11301400F920FB60F9211240F900FBE0F901F90B5
S113015018958FEF809307011092080180930A018C
S1130160089584E2809308018FEF80932A0180939D
S11301702C01089588E1809308018FEF80932A0170
S113018080932C01089589E2809308018FEF809376
S113019028018BE980932A0180932C01089586E13C
S11301A0809308018FEF809328018BE980932A01C3
S11301B080932C010895EF92FF920F931F93CF9396
S11301C0DF93B6DFC6DF8AE2809308010F2EF8E2E0
S11301D0EF2EFF24F394F02D8FEFF70180830AE2D2
S11301E011E0F8018083CCE2D1E08883FFEF2FEFA8
S11301F089E5F15020408040E1F700C00000F7019C
S11302001082F80110821882FFEF2FEF89E5F15078
S113021020408040E1F700C00000A3DF9FEFEFEF34
S1130220F6E89150E040F040E1F700C00000F7012B
S11302301082F80110821882FFEF2FEF89E5F15048
S113024020408040E1F700C0000094DF9FEFEFEF13
S1130250F6E89150E040F040E1F700C00000F701FB
S11302601082F80110821882FFEF2FEF89E5F15018
S113027020408040E1F700C0000085DF9FEFEFEFF2
S1130280F6E89150E040F040E1F700C00000F701CB
S11302901082F80110821882FFEF2FEF89E5F150E8
S11302A020408040E1F700C0000079DF9FEFEFEFCE
S11302B0F6E89150E040F040E1F700C00000F7019B
S11302C01082F80110821882FFEF2FEF89E5F150B8
S11302D020408040E1F700C0000080E090E0DF9122
S11302E0CF911F910F91FF90EF900895F894FFCF55
S9030000FC
