:100000000C9472000C9493000C9493000C94930045
:100010000C9493000C9493000C9493000C94930014
:100020000C9493000C9493000C9493000C94930004
:100030000C9493000C9493000C9493000C949300F4
:100040000C9493000C9493000C9493000C949300E4
:100050000C9493000C9493000C9493000C949300D4
:100060000C9493000C9493000C9493000C949300C4
:100070000C9493000C9493000C9493000C949300B4
:100080000C9493000C9493000C9493000C949300A4
:100090000C9493000C9493000C9493000C94930094
:1000A0000C9493000C9493000C9493000C94930084
:1000B0000C9493000C9493000C9493000C94930074
:1000C0000C9493000C9493000C9493000C94930064
:1000D0000C9493000C9493000C9493000C94930054
:1000E0000C94930011241FBECFEFD1E2DEBFCDBF31
:1000F00000E00CBF12E0A0E0B2E0E4EAFAE000E0C9
:100100000BBF02C007900D92A030B107D9F712E0E3
:10011000A0E0B2E001C01D92AC30B107E1F70E944F
:100120009D040C9450050C9400001092B900ECEB67
:10013000F0E0108284EC80838AE08093B800089518
:10014000ECEBF0E08081806680830895ECEBF0E0DA
:100150008081806880830895ECEBF0E080818823C3
:10016000ECF70895ECEBF0E08081806180830895E6
:100170008091B900887F08958093BB0008952091F5
:10018000BB00FC01208308951F93CF93DF93182FAA
:10019000C62FD42F0E94A0000E94AC000E94B8007D
:1001A000883051F5812F0E94BC00ECEBF0E080819B
:1001B0008F7D80830E94A6000E94AC000E94B80040
:1001C0008831E1F48C2F0E94BC000E94A6000E949E
:1001D000AC000E94B800883299F48D2F0E94BC00B8
:1001E0000E94A6000E94AC000E94B800883251F420
:1001F0000E94B20088E007C080E005C081E003C033
:1002000083E001C083E0DF91CF911F9108950F93A8
:100210001F93CF93DF93C82FD62F8A010E94A0008F
:100220000E94AC000E94B800883009F048C08C2FB2
:100230000E94BC00ECEBF0E080818F7D80830E9407
:10024000A6000E94AC000E94B8008831D1F58D2F25
:100250000E94BC000E94A6000E94AC000E94B80050
:10026000883289F50E94A0000E94AC000E94B8006C
:10027000803159F58C2F81600E94BC00ECEBF0E0DE
:1002800080818F7D80830E94A6000E94AC000E9426
:10029000B8008034E1F4ECEBF0E080818F7B808368
:1002A0000E94A6000E94AC000E94B800883589F424
:1002B000C8010E94BF000E94B20088E00BC080E02D
:1002C00009C081E007C083E005C085E003C082E08B
:1002D00001C084E0DF91CF911F910F9108958F921B
:1002E0009F92AF92BF92CF92DF92EF92FF920F93C5
:1002F0001F93CF93DF93C82FD62F7A0189010E94D5
:10030000A0000E94AC000E94B800883009F074C0C0
:100310008C2F0E94BC00ECEBF0E080818F7D80830D
:100320000E94A6000E94AC000E94B800883109F02B
:1003300065C08D2F80680E94BC000E94A6000E94AC
:10034000AC000E94B800883209F05AC00E94A00098
:100350000E94AC000E94B800803109F053C08C2F7D
:1003600081600E94BC00ECEBF0E080818F7D808397
:100370000E94A6000E94AC000E94B800803409F0E0
:1003800043C0C0E0D0E057010894A108B1080F2E87
:10039000FCEBCF2EDD24F02D48018A0C9B1C25C0E0
:1003A000AC16BD0681F4F60180818F7B80830E94AC
:1003B000A6000E94AC000E94B800883539F5C4013F
:1003C0000E94BF0011C0F6018081806480830E947A
:1003D000A6000E94AC000E94B8008035C9F4C80194
:1003E0008C0F9D1F0E94BF002196CE15DF05C1F620
:1003F0000E94B20088E00DC080E00BC081E009C01F
:1004000083E007C085E005C082E003C087E001C04B
:1004100086E0DF91CF911F910F91FF90EF90DF90D9
:10042000CF90BF90AF909F908F900895E1ECF0E057
:1004300010828FE58093C4001092C50086E08093FF
:10044000C20088E180830895E0ECF0E0908195FFA0
:10045000FDCF8093C6000895EF92FF920F931F93F4
:10046000CF93DF93EB011C161D0674F4E82EF92ED2
:1004700000E010E00F5F1F4FF70181917F010E94A4
:1004800024020C171D07B1F7DF91CF911F910F9137
:10049000FF90EF900895CF93DF93EC01888188233C
:1004A00031F021960E94240289918823D9F7DF91A7
:1004B000CF910895E0ECF0E080818823ECF7809103
:1004C000C60008958091C000882324F48091C6005E
:1004D00090E008958FEF9FEF089586E69EE00197E4
:1004E000F1F700004098419880E388B9429AEFEF15
:1004F000F7E43197F1F700C000004298E6E6FEE02D
:100500003197F1F700004098419888B9429AEFEF8F
:10051000F7E43197F1F700C000004298E6E6FEE00C
:100520003197F1F700004098419888B9429A8FEFCF
:1005300097E40197F1F700C000004298E6E6FEE07C
:100540003197F1F700004098419880E288B9429ACB
:100550008FEF97E40197F1F700C0000042980895EB
:1005600098B19F7098B998B1282F207F922B98B995
:1005700040984198429AEFEFF7E43197F1F700C0C5
:100580000000429898B19F7098B998B18295807F89
:10059000892B88B940984198429A8FEF97E4019748
:1005A000F1F700C0000042980895823079F083305E
:1005B00018F48130C9F405C0833069F08430A1F4A7
:1005C0000FC0862F81580E94B0020895862F815453
:1005D0000E94B0020895862F8D560E94B0020895A1
:1005E000862F8D520E94B00208950E946D0286E609
:1005F0009EE00197F1F7000088E20E94B00281E0DE
:100600000E94B00286E00E94B0028EE00E94B0021A
:1006100080E80E94B002089598B19F7098B998B18F
:10062000282F207F922B98B9409A4198429AEFEF59
:10063000F7E43197F1F700C00000429898B19F703D
:1006400098B998B18295807F892B88B9409A419852
:10065000429A8FEF97E40197F1F700C000004298AB
:10066000089580E80E94B0020895CF93DF93EC01D3
:100670008881882331F021960E940C038991882378
:10068000D9F7DF91CF910895CF93DF93EA0190E0FE
:1006900070E00E94D502CE010E943503DF91CF9118
:1006A00008950F931F93CF93DF938A01E901882365
:1006B00011F0662319F40E94310302C00E94D50292
:1006C000C530D10571F4C80160E177E20E940B05E5
:1006D000CB01C09690930102809300020E940C030C
:1006E00003C0C430D105B9F4C80168EE73E00E94BC
:1006F0000B05CB0170930302609302026AE070E085
:100700000E940B05C09690930B0280930A020E94F0
:100710000C0381E001C080E0C330D10511F08130CD
:10072000B1F4C80164E670E00E940B05CB01709340
:100730000302609302026AE070E00E940B05C0961B
:1007400090930702809306020E940C0381E0C2305E
:10075000D10511F08130B1F42AE030E0C801B901CF
:100760000E940B05CB017093030260930202B90152
:100770000E940B05C09690930502809304020E948C
:100780000C0381E0C130D10511F0813061F4C80162
:100790006AE070E00E940B05C09690930902809376
:1007A00008020E940C03C630D1051CF085E40E94AB
:1007B0000C03DF91CF911F910F91089587B1876F3F
:1007C00087B988B1807888B93B9A4398089586B1F3
:1007D000886088B9089586B1877F88B90895883080
:1007E00009F0FFCF089586EA6CE24AE00E94C40057
:1007F000482F8FEF9FEFACE281509040A040E1F78F
:1008000000C0000081E06AE050E023E030E00E9498
:1008100051030E94E7038FEF9FEBA6E081509040C9
:10082000A040E1F700C000000E94EB038FEF9FEBB8
:10083000A6E081509040A040E1F700C0000086EAA9
:1008400061E341E40E94C400482F8FEF9FEFACE2C8
:1008500081509040A040E1F700C0000081E06AE0D4
:1008600050E023E030E00E9451030E94E7038FEF45
:100870009FEBA6E081509040A040E1F700C000004F
:100880000E94EB038FEF9FEBA6E081509040A040C9
:10089000E1F700C0000086EA6DE248E00E94C40073
:1008A000482F8FEF9FEFACE281509040A040E1F7DE
:1008B00000C0000081E06AE050E023E030E00E94E8
:1008C00051030E94E7038FEF9FEBA6E08150904019
:1008D000A040E1F700C000000E94EB038FEF9FEB08
:1008E000A6E081509040A040E1F700C000000895CC
:1008F0000E94E7038FEF9FEBA6E081509040A0405D
:10090000E1F700C000000E94EB038FEF9FEBA6E031
:1009100081509040A040E1F700C0000082ED60E20D
:100920004FEF0E94C4008FEF9FEFACE281509040E8
:10093000A040E1F700C000000895CF93DF93CDB74A
:10094000DEB762970FB6F894DEBF0FBECDBF0E9430
:10095000DE030E946D020E94F5020E9495000E9433
:10096000160286EA62E3AE014F5F5F4F0E94070105
:100970000E94F3030E94780481E061E00E94D502A6
:1009800088E70E940C0386EA62E3AE014F5F5F4F87
:100990000E94070189819A81BE01655F7F4F4AE00D
:1009A00050E00E941F0581E063E00E94D502CE0165
:1009B0000B960E94350386EA64E3AE014F5F5F4FFA
:1009C0000E94070189819A81BE016D5F7F4F4AE0D5
:1009D00050E00E941F0582E063E00E94D502CE0134
:1009E00003960E943503CE010B960E944B028CE2C7
:1009F0000E942402CE0103960E944B028AE00E94CC
:100A000024028FEF9FE7A6E181509040A040E1F7DC
:100A100000C00000B8CFAA1BBB1B51E107C0AA1F32
:100A2000BB1FA617B70710F0A61BB70B881F991F8F
:100A30005A95A9F780959095BC01CD010895FB01C9
:100A40009F01E8944230C4F04532B4F44A3029F4AE
:100A500097FB1EF4909581959F4F642F77270E94F6
:100A60000B05805D8A330CF0895D8193CB01009783
:100A7000A1F716F45DE251931082C9010C94400570
:100A8000DC01FC01672F71917723E1F7329704C0F5
:100A90007C916D9370836291AE17BF07C8F3089580
:040AA000F894FFCFF8
:00000001FF
