S00C0000626263352E73726563BC
S113000088C00000A5C00000A3C00000A1C000007B
S11300109FC000009DC000009BC0000099C000006C
S113002097C0000095C0000093C0000091C000007C
S11300308FC000008DC000008BC0000089C000008C
S113004087C0000085C0000083C0000081C000009C
S11300507FC000007DC000007BC0000079C00000AC
S113006077C0000075C0000073C0000071C00000BC
S11300706FC000006DC000006BC0000069C00000CC
S113008067C0000065C0000063C0000061C00000DC
S11300905FC000005DC000005BC0000059C00000EC
S11300A057C0000055C0000053C0000051C00000FC
S11300B04FC000004DC000004BC0000049C000000C
S11300C047C0000045C0000043C0000041C000001C
S11300D03FC000003DC000003BC0000039C000002C
S11300E037C00000084AD73B3BCE016E84BCBFFD3D
S11300F0C12F3D6C74319ABD56833DDA3D00C77FF4
S113010011BED9E4BB4C3E916BAAAABE000000808C
S11301103F0011241FBECFEFD1E2DEBFCDBF00E010
S11301200CBF12E0A0E0B2E0E8E5FDE000E00BBFA8
S113013002C007900D92A430B107D9F722E0A4E0E1
S1130140B2E001C01D92A037B207E1F7B5D202C6F2
S113015057CFCF93DF93D62FC42F482F6EE186EA73
S113016036D11FD24D2F6FE186EA31D11AD24C2FEE
S113017060E286EA2CD115D2DF91CF91089540E058
S11301806DE286EA24D10DD248E06DE286EA1FD101
S113019008D24BE061E386EA1AD103D24AE06CE26A
S11301A086EA15D1FED143E060E081E0D2CF089524
S11301B099233CF4A0E0B0E0BC01CD01019779D4CF
S11301C004C0BC0180E090E072D420E030E040E85C
S11301D05BE327C5CF92DF92EF92FF92CF93DF9339
S11301E000D000D0CDB7DEB79E012F5F3F4F86E031
S11301F0F90111928A95E9F746E050E062E386EA54
S113020021D1CFD18A8190E0982F88272981822B10
S1130210CFDF6B017C018E8190E0982F88272D81A0
S1130220822BC6DF9B01AC01C701B601905853D3A2
S113023020E030E044E353E4F4D429EF3FE049E420
S113024050E49CD326960FB6F894DEBF0FBECDBF04
S1130250DF91CF91FF90EF90DF90CF900895CF92F0
S1130260DF92EF92FF92CF93DF9300D000D0CDB70F
S1130270DEB79E012F5F3F4F86E0F90111928A9508
S1130280E9F746E050E062E386EADCD08AD18C816B
S113029090E0982F88272B81822B8ADF6B017C01C9
S11302A08E8190E0982F88272D81822B81DF9B01FE
S11302B0AC01C701B60190580ED320E030E044E30E
S11302C053E4AFD429EF3FE049E450E457D32696F2
S11302D00FB6F894DEBF0FBECDBFDF91CF91FF9074
S11302E0EF90DF90CF9008954FE160E282ED6FD000
S11302F058D140EB63E282ED6AD053C10895CF92A6
S1130300DF92EF92FF926A017B0199233CF4A0E013
S1130310B0E0BC01CD010197CCD304C0BC0180E0A6
S113032090E0C5D329E23CE54FE85DE37AD4A70128
S113033096015DD2FF90EF90DF90CF900895CF9318
S1130340DF931F921F92CDB7DEB719821A829E01E6
S11303502F5F3F4F42E050E06AE282ED73D021D13B
S113036040910002509101026091020270910302D7
S11303708A8190E0982F88272981822BC0DF0F90F3
S11303800F90DF91CF9108951092B900ECEBF0E05B
S1130390108284EC80838AE08093B8000895ECEBAB
S11303A0F0E08081806680830895ECEBF0E080814A
S11303B0806880830895ECEBF0E080818823ECF77B
S11303C00895ECEBF0E080818061808308951F93B1
S11303D0CF93DF93C82FD62F142FE1DFECDF80916A
S11303E0B900887F883019F5C093BB00ECEBF0E0CE
S11303F080818F7D8083D9DFDEDF8091B900887FA3
S11304008831B9F4D093BB00D0DFD5DF8091B90037
S1130410887F883281F41093BB00C7DFCCDF8091E2
S1130420B900887F883249F4CCDF80E007C088EFC8
S113043005C089EF03C08BEF01C08BEFDF91CF9133
S11304401F9108956F927F928F929F92AF92BF9265
S1130450CF92DF92EF92FF920F931F93CF93DF938C
S1130460C82FD62F4A01E22EF32E99DFA4DF809104
S1130470B900887F883009F078C0C093BB00ECEBEA
S1130480F0E080818F7D808390DF95DF8091B900DB
S1130490887F883109F06BC0D068D093BB0085DFBA
S11304A08ADF8091B900887F883209F062C077DFE3
S11304B082DF8091B900887F803109F05CC0C1601F
S11304C0C093BB00ECEBF0E080818F7D80836DDF17
S11304D072DF8091B900887F803409F04EC08114A6
S11304E0910409F43FC00E2D1F2DC0E0D0E064013B
S11304F081E0C81AD1080F2EFCEBEF2EF12CF02D61
S11305000F2EF9EBAF2EB12CF02D0F2EFBEB6F2E2F
S1130510712CF02DCC15DD0581F4F70180818F7BE2
S1130520808343DF48DFF5018081887F883539F592
S1130530F3018081F80180830FC0F701808180641A
S1130540808333DF38DFF5018081887F8035C9F40B
S1130550F3018081F801808321960F5F1F4F8C1671
S11305609D06C1F62EDF80E00DC088EF0BC089EF39
S113057009C08BEF07C08DEF05C08AEF03C08FEF72
S113058001C08EEFDF91CF911F910F91FF90EF90FB
S1130590DF90CF90BF90AF909F908F907F906F909F
S11305A008958111FFCF089587B1876F87B988B106
S11305B0887088B9089586E69EE00197F1F70000F7
S11305C04098419880E388B9429AEFEFF7E4319775
S11305D0F1F700C000004298E6E6FEE03197F1F73B
S11305E000004098419888B9429AEFEFF7E43197B8
S11305F0F1F700C000004298E6E6FEE03197F1F71B
S113060000004098419888B9429A8FEF97E4019787
S1130610F1F700C000004298E6E6FEE03197F1F7FA
S113062000004098419880E288B9429A8FEF97E49D
S11306300197F1F700C000004298089598B19F70A7
S113064098B998B1282F207F922B98B94098419857
S1130650429AEFEFF7E43197F1F700C000004298B7
S113066098B19F7098B998B18295807F892B88B989
S113067040984198429A8FEF97E40197F1F700C0B0
S113068000004298089597DF86E69EE00197F1F70F
S1130690000088E2D3DF81E0D1DF86E0CFDF8EE0A7
S11306A0CDDF80E8CBCF08956FDE7DD068DD1CDE22
S11306B07BDFE9DF71C00895F7DFC4E8D0E08ADDAD
S11306C0609328027093290280932A0290932B024C
S11306D0C6DD60936C0270936D0280936E029093FA
S11306E06F02888199812BDE609304027093050266
S11306F08093060290930702609128027091290268
S113070080912A0290912B02A1D1DC01CB014AE015
S11307106CE272E0ECD26091040270910502809167
S113072006029091070292D1DC01CB014AE068E015
S113073072E0DDD28CE292E04CD08CE242D088E0D0
S113074092E047D08AE03DD02FEF8FE796E1215029
S113075080409040E1F700C00000B1CFE1E8F0E054
S113076010821092850010928400109289001092D9
S1130770880010928B0010928A0010928D001092C3
S11307808C001092870010928600109280001092C4
S1130790820084E080830895F894E0DF81E0809310
S11307A06F0078940895E1ECF0E010828FE5809377
S11307B0C4001092C50086E08093C20088E1808363
S11307C00895E0ECF0E0908195FFFDCF8093C600A2
S11307D00895CF93DF93EC018881882329F0219633
S11307E0F0DF89918111FCCFDF91CF9108955058AA
S11307F0BB27AA270ED0D4C1C5D130F0CAD120F06E
S113080031F49F3F11F41EF495C10EF4E095E7FB1B
S11308108BC1E92FD6D180F3BA1762077307840717
S1130820950718F071F49EF5EEC10EF4E0950B2EC9
S1130830BA2FA02D0B01B90190010C01CA01A0012E
S11308401124FF27591B99F0593F50F4503E68F189
S11308501A16F040A22F232F342F4427585FF3CFCA
S1130860469537952795A795F0405395C9F77EF49B
S11308701F16BA0B620B730B840BBAF09150A1F0E4
S1130880FF0FBB1F661F771F881FC2F70EC0BA0F6A
S1130890621F731F841F48F4879577956795B795F2
S11308A0F7959E3F08F0B3CF9395880F08F09927EA
S11308B0EE0F97958795089565D158F080E891E0FB
S11308C009F49EEF66D128F040E851E059F45EEF58
S11308D009C030C198C1E92FE07873D168F3092EBB
S11308E0052AC1F3261737074807590738F00E2E93
S11308F007F8E02569F0E025E0640AC0EF6307F833
S1130900009407FADB01B9019D01DC01CA01AD01C4
S1130910EF9343D045D10AD05F91552331F02BEDAD
S11309203FE049E450FD49EC63CF0895DF93DD27B0
S1130930B92FBF7740E85FE31616170648075B0731
S113094010F4D92F67D19F938F937F936F93CCD15A
S1130950E4EEF0E0F2D024D12F913F914F915F91DA
S11309606CD1DD2349F09058A2EA2AED3FE049EC2E
S11309705FE3D0785D274DDFDF9112C10CD010C149
S113098008D140F0FFD030F021F45F3F19F0CCC023
S113099051113AC1CFC015D198F39923C9F3552306
S11309A0B1F3951B550BBB27AA276217730784075E
S11309B038F09F5F5F4F220F331F441FAA1FA9F314
S11309C033D00E2E3AF0E0E830D091505040E69506
S11309D0001CCAF729D0FE2F27D0660F771F881F67
S11309E0BB1F261737074807AB07B0E809F0BB0B56
S11309F0802DBF01FF2793585F4F2AF09E3F51057A
S1130A0068F092C001C15F3FECF3983EDCF3869539
S1130A1077956795B795F7959F5FC9F7880F911DEF
S1130A209695879597F90895E1E0660F771F881FDB
S1130A30BB1F621773078407BA0720F0621B730B8E
S1130A40840BBA0BEE1F88F7E095089504D06894E0
S1130A50B111DAC00895BDD088F09F5790F0B92F36
S1130A609927B751A0F0D1F0660F771F881F991FFF
S1130A701AF0BA95C9F712C0B13081F0C4D0B1E010
S1130A800895C1C0672F782F8827B85F39F0B93F20
S1130A90CCF3869577956795B395D9F73EF4909501
S1130AA08095709561957F4F8F4F9F4F0895E8947F
S1130AB009C097FB3EF490958095709561957F4FA2
S1130AC08F4F9F4F9923A9F0F92F96E9BB27939550
S1130AD0F695879577956795B795F111F8CFFAF460
S1130AE0BB0F11F460FF1BC06F5F7F4F8F4F9F4F91
S1130AF016C0882311F096E911C0772321F09EE8EF
S1130B00872F762F05C0662371F096E8862F70E054
S1130B1060E02AF09A95660F771F881FDAF7880F2E
S1130B209695879597F9089597F99F6780E870E0FF
S1130B3060E008959FEF80EC0895DF93CF931F93B7
S1130B400F93FF92EF92DF927B018C01689405C0B2
S1130B50DA2EEF0172D0FE01E894A591259135912A
S1130B6045915591AEF3EF0154DEFE019701A801C2
S1130B70DA9479F7DF90EF90FF900F911F91CF9166
S1130B80DF91089500240A9416161706180609061C
S1130B90089500240A9412161306140605060895EF
S1130BA0092E0394000C11F4882352F0BB0F40F477
S1130BB0BF2B11F460FF04C06F5F7F4F8F4F9F4FB7
S1130BC0089557FD9058440F551F59F05F3F71F039
S1130BD04795880F97FB991F61F09F3F79F08795A0
S1130BE00895121613061406551FF2CF4695F1DF29
S1130BF008C0161617061806991FF1CF86957105B9
S1130C00610508940895E894BB2766277727CB01EC
S1130C1097F908959B01AC0160E070E080E89FE3E0
S1130C20ADCE0BD0BDCFAEDF28F0B3DF18F09523E7
S1130C3009F07ACF7FCF1124E7CFC3DFA0F3959FCC
S1130C40D1F3950F50E0551F629FF001729FBB27AF
S1130C50F00DB11D639FAA27F00DB11DAA1F649F5B
S1130C606627B00DA11D661F829F2227B00DA11D0E
S1130C70621F739FB00DA11D621F839FA00D611D94
S1130C80221F749F3327A00D611D231F849F600DB5
S1130C90211D822F762F6A2F11249F5750408AF0EE
S1130CA0E1F088234AF0EE0FFF1FBB1F661F771F7A
S1130CB0881F91505040A9F79E3F510570F034CFE2
S1130CC0A3CF5F3FECF3983EDCF386957795679569
S1130CD0B795F795E7959F5FC1F7FE2B880F911D98
S1130CE09695879597F908959B01AC019ACFBB27F8
S1130CF04A3031F4992322F4BDE2909581959F4FB7
S1130D0001C0BB27FB015527AA27880F991FAA1FDB
S1130D10A41710F0A41B83955051B9F7A05DAA3312
S1130D2008F0A95DA193009779F7B111B1931192DD
S1130D30CB0100C0DC01FC01672F71917723E1F73F
S1130D40329704C07C916D9370836291AE17BF0794
S10B0D50C8F30895F894FFCFE5
S1070D58E4836E3F7F
S9030000FC
